:1000000010C01FC01EC01DC01CC01BC028C419C00A
:1000100018C017C016C015C014C013C012C011C03C
:1000200010C011241FBECFE5D2E0DEBFCDBF10E06F
:10003000A0E6B0E001C01D92A13DB107E1F744D4B4
:1000400046C4DECFB89AC09AB99AC19ABA98E4EC7D
:10005000F0E0108281E0818382E0828383E0838309
:10006000E8EBF0E084E0808385E0818386E08283B2
:1000700087E083831092D0000895582F28E090E8FD
:1000800080E0309163004BB3309534233BBB392F74
:10009000352329F0309161004BB3342B05C03091EA
:1000A00061004BB3309534233BBB3AE03A95F1F70E
:1000B00000C0309163004BB3342B3BBB39B340914C
:1000C0006200342309F0892B3AE03A95F1F700C039
:1000D00096952150B1F6909163002BB390959223A1
:1000E0009BBB95E39A95F1F700000895FF920F935B
:1000F0001F93CF93DF9308EA10E0CCEAD0E0FC2E08
:1001000084E0F80E8991B9DFF80181938F01FC1228
:10011000F9CFDF91CF911F910F91FF900895ECEAF5
:10012000F0E090EA9083118282831382DFDF809176
:10013000AB000895ECEAF0E090EC908311828283AA
:100140006383D4DF8FE39FE10197F1F700C00000E4
:1001500008951092AE001092AF00813059F020F057
:10016000823071F480E507C080E58093AC00109286
:10017000AD0006C088E58093AC0088E08093AD00B8
:10018000B5DF8091AB0008959CEA9093AC0010928B
:10019000AE00813039F020F0823039F484EA03C0B7
:1001A00080EA01C088EA8093AD006093AF009EDFD3
:1001B0008FE097E20197F1F700C000000895ECEAA4
:1001C000F0E02CE420839183828313828FDF8FE021
:1001D00097E20197F1F700C000000895CF92DF92F7
:1001E000EF92FF920F931F93CF93DF9300D0CDB781
:1001F000DEB72CEAC22E20E0D22E20E2F6012083C8
:1002000091838283138289839A8370DF38EAE32E95
:1002100030E0F32EF701038110E028E2F60120839D
:100220009A81918389818283138260DFF7019381B0
:10023000892F90E0982F8827800F911F0F900F90A3
:10024000DF91CF911F910F91FF90EF90DF90CF90B2
:100250000895EF92FF920F931F93CF93DF937C014A
:10026000062F10E0C0E0D0E0C017D10769F0CE0142
:100270008E0D9F1DB3DFFE01EE0FFF1FE859FF4FEC
:10028000808391832196F0CFDF91CF911F910F91C1
:10029000FF90EF9008950F931F93CF93DF9300D0BB
:1002A000CDB7DEB70CEA10E090E4F801908311823C
:1002B000828363837A83898319DF98E4F8019083CA
:1002C0001182898182837A8173830F900F90DF91ED
:1002D000CF911F910F910ACFEF92FF920F931F932F
:1002E000CF93DF937C01062F10E0C0E0D0E0C01771
:1002F000D10791F0FE01EE0FFF1FE859FF4F61811A
:1003000070E0762F66278081680F711DCE018E0DFB
:100310009F1DC1DF2196EBCFDF91CF911F910F91F0
:10032000FF90EF900895809163009AB3892B8ABB68
:10033000809163009BB3809589238BBB8091620081
:100340009AB3809589238ABB809161009BB3892BE6
:100350008BBB809160009BB3892B8BBB809160002D
:100360009BB3892B8BBB08950F931F93CF93DF9380
:100370001F92CDB7DEB7D7DF809163009BB3809526
:1003800089238BBB809160009BB3809589238BBBB5
:100390008AE18A95F1F700C0809160009BB3892BB8
:1003A0008BBB9AE19A95F1F700C0809160009BB3F6
:1003B000809589238BBBEFE3FCE93197F1F700C00F
:1003C00000000CEA10E08CEAF801808383E5818369
:1003D000128213828BDE8091AA009DE4F801908343
:1003E000118212821382898381DE89810F90DF91CD
:1003F000CF911F910F9108950F931F93CF93B4DF67
:1004000080E38093AC001092AD001092AF0004E640
:1004100010E0C0E0C093AE0069DE8091AB00F8014F
:1004200081938F01CF5FC430A9F760916500862F5B
:1004300090E0A0E0B0E04427582F692F7A2F8091F8
:10044000660090E0A0E0B0E0DC0199278827840FE7
:10045000951FA61FB71F20916400BC01CD01620F3C
:10046000711D811D911DCF911F910F9108957CDF0A
:10047000ECEAF0E08CEA808380E8818312821382C8
:1004800035DE8FE19EE40197F1F700C0000008958A
:10049000FC0121E030E0C901038002C0880F991FF0
:1004A0000A94E2F780936300C901028002C0880FBA
:1004B000991F0A94E2F780936200C901018002C08B
:1004C000880F991F0A94E2F780936100008002C0B0
:1004D000220F331F0A94E2F72093600024CFCF92BB
:1004E000DF92EF92FF920F931F93CF93DF93809150
:1004F000B0009091B10026E0969587952A95E1F796
:10050000C82F811101C0C1E0D0E000E08091B600A9
:100510009091B700BDDF28DF98E6E92E90E0F92E34
:10052000670110E0812F8D0FFADDF60181936F01D5
:100530001F5F1034B9F78091B4009091B500A8DF27
:1005400013DF88E6C82E80E0D82E10E0F601619116
:100550006F01812F8D0FEEDD1F5F1034B9F710E0B2
:10056000812F8D0FDCDDF70191917F01891309C087
:100570001F5F1034A9F70F5FD05C0C13C7CF81E069
:1005800001C080E0DF91CF911F910F91FF90EF901C
:10059000DF90CF9008951F93CF93DF938091B600A3
:1005A0009091B70075DFE0DE80E0D3DD182F81E0A9
:1005B000D0DDD82F82E0CDDDC82F8091B40090919E
:1005C000B50066DFD1DE612F80E0DEDD6D2F81E0DA
:1005D000DBDD6C2F82E0D8DD80E0BBDD81130AC05B
:1005E00081E0B7DD8D1306C082E0B3DD8C1302C05D
:1005F00081E001C080E0DF91CF911F910895EF92DB
:10060000FF920F931F93CF93DF938091B40090914B
:10061000B5003EDF2CDF8091B6009091B70038DF47
:10062000A3DEE12C00E010E08091B300E81688F52D
:100630008091B6009091B7002BDF96DE6091B200FA
:10064000C80107DE8091B4009091B50021DF8CDEF7
:100650006091B200C80140DEC801B1DDF12C80918B
:10066000B200F81690F4CF2DD0E0CE01800F911F8C
:10067000B5DDCC0FDD1FC859DF4F288128130BC013
:100680008981891308C0F394EACF080F111DE39400
:10069000CBCF81E001C080E0DF91CF911F910F911E
:1006A000FF90EF900895CF93DF93EC01F1DEA4DE8D
:1006B0006E3122E9720727E08207910579F06E31E9
:1006C00023E972072CE082079105B1F46C837D83E6
:1006D0008E839F8380E2888780E807C06C837D8358
:1006E0008E839F8380E2888780E4898780E091E021
:1006F0009B878A8781E001C080E0DF91CF910895D8
:1007000088EB90E09093B7008093B60084EC90E083
:100710009093B5008093B400089586B3809584705B
:100720000895BA9AC2980895BA9808951092D00080
:100730000895C0980895C09A089581E086BB0895F1
:10074000C1980895C19A089582E086BB08951FBCA0
:100750002DE02EBD12BC1DBC1CBC9BBD8ABD82E021
:100760008CB908958091D000813079F030F08230DA
:10077000B1F0833009F461C0089584EC90E093DF18
:10078000882311F081E056C0D6CFD3DF80E49FE10B
:10079000DEDFC3DF882319F082E08093D000C1DF61
:1007A0008FE19EE40197F1F700C00000A9DF80ED22
:1007B00097E0CDDF8091B4009091B50074DF88237D
:1007C000C1F18091B6009091B7006DDF882389F167
:1007D000A091B400B091B50019969C911997E09141
:1007E000B600F091B7008185981718F49093B30084
:1007F00002C08093B3001A962D913C911B9782857D
:1008000093852817390728F43093B1002093B0005E
:1008100004C09093B1008093B00080858093B200B3
:10082000EEDE882331F0B7DE882319F058DE81111F
:100830000DC083E08093D00008959FEF21E18AE707
:10084000915020408040E1F700C000001092D0009D
:1008500079CF1DBC1CBC1CB888E08EBD08951F92CA
:100860000F920FB60F9211242F933F934F935F93E4
:100870006F937F938F939F93AF93BF93EF93FF9368
:10088000E8DF8091D000823039F0833039F0813058
:1008900051F41092D00007C081E001C082E086BB15
:1008A00080ED97E054DFFF91EF91BF91AF919F9161
:1008B0008F917F916F915F914F913F912F910F9009
:1008C0000FBE0F901F901895BDDB4CDFFECFF89444
:0208D000FFCF58
:00000001FF
