:100000000EC01DC01CC01BC01AC019C018C017C02C
:1000100016C015C014C013C012C011C010C01124E6
:100020001FBECFE5D2E0DEBFCDBF20E0A0E6B0E04E
:1000300001C01D92A436B207E1F733D035C0E0CF3E
:10004000BC9AB89881E287B982E886B90895369A51
:100050003699FECF85B190E0909361008093600067
:100060001092630010926200209162003091630050
:1000700080916000909161002817390710F0B49AC0
:1000800008958FE097E20197F1F700C0000080919A
:1000900062009091630001969093630080936200E8
:0C00A000E3CFCEDFD4DFFECFF894FFCF1B
:00000001FF
